:020000040800F2
:10000000C8080020A5010008753B000861360008FB
:100010002D3A0008BD0F00086942000800000000EA
:10002000000000000000000000000000213E000869
:1000300029100008000000002D3D0008253E0008A2
:10004000BF010008BF010008BF010008BF01000890
:10005000BF010008BF0100082D100008BF01000803
:10006000BF010008BF010008BF010008BF01000870
:10007000111000081D100008BF010008BF01000892
:10008000BF010008BF010008BF010008514200087D
:100090005D420008C10F0008CD0F0008BF01000835
:1000A000BF010008BF010008BF010008BF01000830
:1000B000BF0100082D3E0008393E0008BF010008BE
:1000C000BF010008BF010008BF010008BF01000810
:1000D000BF010008BF010008BF0100084542000839
:1000E000BF010008BF010008BF01000800F002F8CE
:1000F00000F048F80AA090E8000C82448344AAF17A
:100100000107DA4501D100F03DF8AFF2090EBAE877
:100110000F0013F0010F18BFFB1A43F0010318473B
:10012000585E0000785E0000103A24BF78C878C19D
:10013000FAD8520724BF30C830C144BF04680C60ED
:10014000704700000023002400250026103A28BF35
:1001500078C1FBD8520728BF30C148BF0B60704739
:100160001FB500F067FC04000020002104F0D4FE5D
:10017000401C60600020002104F0B8FEE0601FBD5C
:1001800010B510BD00F034F91146FFF7E9FF04F097
:100190008BF900F07BF903B4FFF7F2FF03BC00F02A
:1001A00043FC00000948804709480047FEE7FEE796
:1001B000FEE7FEE7FEE7FEE7FEE7FEE7FEE7FEE717
:1001C00004480549054A064B70470000293E0008CF
:1001D000ED000008C8020020C8080020C804002064
:1001E000C8040020401ECAB210F8011F8A4202D083
:1001F0000029F9D10020704730B505460B462A4644
:1002000013F8014B12F8010B08B1A042F8D01CB151
:10021000002802D06D1CF1E7284630BD032A40F2C9
:10022000308010F0030C00F0158011F8013BBCF198
:10023000020F624498BF11F801CB00F8013B38BFB0
:1002400011F8013BA2F1040298BF00F801CB38BFBE
:1002500000F8013B11F0030300F02580083AC0F0DC
:10026000088051F8043B083A51F804CBA0E8081084
:10027000F5E7121D5CBF51F8043B40F8043BAFF3B7
:100280000080D20724BF11F8013B11F801CB48BF11
:1002900011F8012B24BF00F8013B00F801CB48BF47
:1002A00000F8012B704710B5203AC0F00B80B1E880
:1002B0001850A0E81850B1E81850A0E81850203A9B
:1002C000BFF4F5AF5FEA027C24BFB1E81850A0E8A4
:1002D000185044BF18C918C0BDE810405FEA827CBE
:1002E00024BF51F8043B40F8043B08BF7047D207D5
:1002F00028BF31F8023B48BF11F8012B28BF20F876
:10030000023B48BF00F8012B7047704770477047A9
:1003100010B500F00DF8006810BD10B5044600F0EF
:1003200007F8046010BD0023036000F027B8000048
:1003300000487047100000200FB40B0010B54FF0BC
:1003400000048AB00FA900910E99CC60234C7C4424
:10035000234A7A44CDE9064200D004236FF00042DC
:10036000CDE901321F4A7A446B46089202460020CA
:1003700005F084FD0AB010BC5DF814FBF0B507462B
:100380004FF0FF301E4615460C463B4685B06A4688
:100390000091CDE9010131460020049004A8FFF747
:1003A000CBFF04990346601825B109B1024600E06D
:1003B00022462A6000290ED0002B02DD00998142DE
:1003C00009D03B466A463146001B0094CDE9010442
:1003D00004A8FFF7B1FF05B0F0BD0000FB0000006E
:1003E00015010000D10000000048704710000020F7
:1003F0007546FFF7F9FFAE4605006946534620F003
:100400000700854618B020B5FFF7DAFEBDE82040AA
:100410004FF000064FF000074FF000084FF0000BC0
:10042000AC46ACE8C009ACE8C009ACE8C009ACE82F
:10043000C00921F007018D46704710B5044600F051
:100440002FF80068005D00F0010010BD426842B165
:10045000016811F8013B23B1521EC0E90012184691
:1004600070470121C160881E704742685AB1C36855
:10047000016843B983688B4205D0491E521CC0E90C
:100480000012002070474FF0FF30704710B504464F
:10049000AFF300802046BDE81040FFF77CBE0000AF
:1004A00010B500F0C7FA001D10BD00BF6D4A000076
:1004B0002DE9FF4F06468BB00878FF2806D0491C6F
:1004C0002D2805D000244FF0000908E000200CE0A2
:1004D0000124F8E709EB8903491C00EB430908787C
:1004E000FF28F7D114B1C9F100008146107800252A
:1004F0002C46AA4629462D2801D02B2804D1521C6F
:100500002D2813D0002082468B461078FF280FD06C
:100510004FF0000C0A21521CA5FB017804FB01815D
:1005200005FB0C11C5194BEB0104EEE70120EAE7CE
:10053000002108464FF00000BAF1000F02D000EB96
:1005400080004008C0F38157012F01DD4FF0FF37D5
:100550000E9955EA040009EB01080BD04FF002098F
:1005600018F5FA7F16DA4FEACA70002F706008DDBE
:10057000012007E04FEACA70C6E900B00FB0BDE83D
:10058000F08F00203060FFF7D3FEC0F800901821F4
:10059000084616E0B8F5FA7F18DD002F02DAF748B2
:1005A000784401E0F6487844D0E90010C6E900102C
:1005B00040EACA707060FFF7BBFEC0F800901421DB
:1005C00008460FB0BDE8F04F05F0F5BB0021084626
:1005D0004FF00000B8F10001099002DAC7F1000203
:1005E00000E03A4601DAC8F1000106A800F03AFA44
:1005F00006AB93E8070003AB83E8070044F23E0034
:100600005BEA04010090584604D144F21E012C46D6
:100610005D460091210C0904014306D10099240490
:1006200044EA15442D041039009104F07F41014340
:1006300006D10099240244EA15642D02083900917C
:1006400004F07041014306D10099240144EA157475
:100650002D01091F009104F04041014306D100998A
:10066000A40044EA9574AD00891E009104F0004195
:10067000084304D100986D196441401E00904FF06A
:1006800001033A466846B8F1000FCDE9014503A9D8
:1006900002DD04F0FCF901E004F0CFF9BAF1000F3B
:1006A00004460D4601D084F00044002108464FF076
:1006B0000000099940F2FF77484010F00C0F07D175
:1006C00024F00040284303D0C4F30A50B84212D1AA
:1006D000FFF72EFEC0F80090C4F30A50B8420AD1CA
:1006E000A8487844D0E90010C6E9001004F00041A1
:1006F0000843706042E7C6E900543FE72DE9FF4F29
:100700001F464FF0000A4FF0FF38454691B0D7E939
:100710000146CDF83CA000F08DF9C0680168405C4E
:100720001090B96912986D1C8847396A81468847CC
:100730000028F6D1B9F1FF3F0AD0002E24F4D0648E
:1007400011DDB9F12B0F08D0B9F12D0F0BD102E05B
:10075000404615B013E744F48064B96912986D1CE3
:100760008847761E8146600504A901D52D2000E04A
:100770002B20002E01F1010B0DF130088DF8100037
:100780003FDDB9F1690F08D0B9F1490F05D0B9F1D2
:100790006E0F02D0B9F14E0F1CD13B4601A8009557
:1007A00080E85002DDE912126FF0020005F06AFBEA
:1007B000C11CCED10EE0B96912986D1C88478146E4
:1007C0001398761E44F4007405600F98401C002EA8
:1007D0000F9016DDB9F1300FEDD0B9F1780F02D0DE
:1007E000B9F1580F0DD10F9801280AD13B46CDE938
:1007F0000054DDE91212001F029605F041FBC11CF6
:10080000A7D1109989453ED144F0800406E01399A0
:10081000681CAAF1010A44F400740860B9696D1CEF
:100820001298761E884730288146F0D02BE0109928
:10083000894505D1200603D4761E44F0800418E0D3
:10084000484604F0DCFA08B3761E0DF12302934506
:10085000A9F1300044F4007406D20BF8010B200615
:1008600007D5AAF1010003E0200602D40AF1010035
:100870008246A00502D51399681C0860B9691298D0
:100880006D1C88478146002ED1DC53E0002E51DDDF
:10089000B9F1650F02D0B9F1450F4BD1A00549D58B
:1008A000B9696D1C1298761E24F440748847002E96
:1008B00081460CDD2B2804D0B9F12D0F07D144F46B
:1008C0008074B96912986D1C8847761E8146E005D0
:1008D00001D52D2100E02B2108F8011BCDF8008067
:1008E00021E0761E0DF13901884544F400740CD2E4
:1008F000A9F1300010F0FF0088F8000002D1009943
:10090000884509D908F1010806E0E00501D51E482F
:1009100001E042F20F708246B96912986D1C884757
:10092000814613980560002E04DD484604F067FAFE
:100930000028D6D1F96912988847FF2053468BF8D2
:10094000000088F8000000200A900B9004AA0CA96F
:100950000AA8FFF7ADFDA00502D46FF00100F8E68C
:1009600014F0240F12D0E0071CD13868DDE90A1218
:10097000031D3B600068C0E9001213E0FC59000051
:10098000EE590000B2580000F1D8FFFF0AA96846EE
:1009900004F0C4F9E00705D13868009A011D3960F8
:1009A000006802602846D4E64FF0013C50F8042B62
:1009B00051F8043B9A4221D1A2EB0C03934313EA72
:1009C000CC1317D150F8042B51F8043B9A4215D19F
:1009D000A2EB0C03934313EACC130BD150F8042B76
:1009E00051F8043B9A4209D1A2EB0C03934313EA5A
:1009F000CC13DBD04FF00000704700BFD01A01BA13
:100A0000B1FA81F101F0180122FA01F0CB40DBB21A
:100A1000C0B2C01AC1F120012CFA01F3D11A9143DE
:100A200011EAC311E6D1704701491820ABBEFEE7B9
:100A3000260002000048704730000020B2F1200379
:100A40000AD5C2F1200301FA02F120FA03F341EAC8
:100A5000030100FA02F0704700FA03F14FF00000C2
:100A6000704700002DE9F047814616468AB03548A8
:100A700078440DC88DE80D0032487844801C03ACE2
:100A80000DC884E80D0041F69B300844372190FBE7
:100A9000F1F290FBF1F5A5F1800501FB12041B3C7E
:100AA00002D56442012000E00020DFF898A08046D3
:100AB0000027FA44AAF1BE0A0EE0E0070AD0324647
:100AC000684607EB470101230AEB810103F0CAFFE7
:100AD0008DE8070064107F1C002CEED1194F7F4475
:100AE000AE3F19E0E80715D007EB04100DF1180A26
:100AF00090E80E008AE80E00C068F04201D1981913
:100B000008903246012306A903A803F0ABFF03AB0C
:100B100083E807006D10641C002DE3D14FF0010342
:100B200032466946B8F1000F03A802D003F070FF07
:100B300001E003F097FFC9E90001C9F808200AB0F5
:100B4000BDE8F087C0540000704700002DE9FF4F5A
:100B50001F464FF03C0987B04FF00042DDE914100A
:100B600001F10108DDF858A002EA4050039000208E
:100B700005908346054604460490B969461E0898C8
:100B80008847AAF1010A0290BAF1000F3BDD0298F2
:100B90002E2815D0102100F003FA00282EDB4FF08C
:100BA000010B0599014317D0B9F1000F0BDB4A4641
:100BB000C117FFF743FF05430C43A9F1040905E002
:100BC000012004900BE008B145F0010501200590DB
:100BD000049820B9361D02E0049800B1361FB969A7
:100BE000089808F101088847BBF1000FAAF1010A33
:100BF0000290C9D00999C1F80080C5E70298702811
:100C000008D0502806D0F96908988847BBF1000F32
:100C100014D04FE0002002900120BBF1000F04909F
:100C200009D0B969089808F101088847AAF10109B3
:100C3000B9F1000F07DCF969089888476FF00100E7
:100C40000BB0BDE8F08F2B2804D02D280CD14FF02D
:100C5000FF300490B969089808F101088847A9F1A4
:100C60000109B9F1000FE6DD411CE4D00A2100F0D2
:100C700097F90028DFDB029908F1010801EB8101F7
:100C800000EB41000290B969089888470A2100F0FA
:100C900087F9099AA9F10109B9F1000FC2F800809A
:100CA00001DD0028E7DAF969089888470499029875
:100CB00000FB016655EA040004D004F0404109003D
:100CC00002D006E0039898E0A40044EA9574AD00D1
:100CD000B61E04F00041080002D16D196441761E71
:100CE000159810F0240F03D04FF00B095C4803E077
:100CF0004FF028096FF07D008246564507DAAAEBCF
:100D000006018944B9F1410F01DD4FF0410901208D
:100D10000021A9F10102FFF791FE024628400B468F
:100D20002140084301D0012100E00021501E029122
:100D300043F1FF3128402140084301D0012000E069
:100D400000200299834651EA0B014FD0002108464A
:100D50004FF00000039900F4400039B100EB80002F
:100D60004FF4400100EBD07001EA600080150128CB
:100D700002DD4FF0FF3000E013D0401C36D0029867
:100D800060B3BBF1000F0CD14A4601200021FFF7F0
:100D900055FE28402140084301D0012000E00020FA
:100DA000E0B101204A460021FFF748FE0346401902
:100DB0000A4661412D1A8C4111D3B9F1400F09DD6A
:100DC000159810F0240F02D0AAF1340603E0AAF11E
:100DD000170600E0761C00254FF0004406E05B1E7D
:100DE00042F1FF3220EA030521EA0204CAF10100C0
:100DF000B04206DA1B490398084301900020009096
:100E00000EE0039AC4F3D321E80A0A43164940EAE4
:100E100044500A433146CDE90002684603F0E4FF3E
:100E2000159810F0240F0BD01598C00715D138680D
:100E3000DDE90012031D3B600068C0E900120CE010
:100E400002A8694603F06AFF1598C00705D1386803
:100E5000029A011D3960006802604046F0E6000019
:100E600002FCFFFF0000F07F0000F03F2DE9FF4F84
:100E700092461D4685B04FF00041DDE9124BDDE999
:100E800014727F1E01EA4B50414940F0FF4940EA8D
:100E90000108002122F020004928049102D04E28A8
:100EA00028D04CE03BA0012607C88DE80700A969BF
:100EB0000698641C88477F1E014606D41DF806006C
:100EC00018B121F0200181420BD0E96906988847CA
:100ED000032E34D0082E32D06FF0010009B0BDE8E7
:100EE000F08F761C032E01D0082EE0D1601CCAF8CA
:100EF0000000DCE7A9690698641C88477F1E2AD495
:100F000020F02000412826D1A9690698641C884752
:100F10007F1E20D420F020004E281CD1A9690698FD
:100F2000641C88477F1E48F4002849F48009CAF8E9
:100F3000004001D4282806D0E969069888475FEA6E
:100F4000CB7012D022E0A9690698641C88477F1EE6
:100F500001D4002803DAE96906988847BCE7292804
:100F6000F1D1641CCAF80040E9E71BF0240F07D058
:100F700028680499031D2B600068C0E9001805E08B
:100F80002868021D2A600068C0F800902046A5E786
:100F90000000F07F494E46494E4954590000000078
:100FA0003A2800D2303820F02002412A01D3A2F1A1
:100FB0003700884201D34FF0FF307047FEE7000052
:100FC00040F2E400C2F2000000F0CAB940F2E400CE
:100FD000C2F2000000F0C4B910B58AB00446002087
:100FE0000690CDE90400CDE90200CDE90000012022
:100FF000CDE907006946204600F08EF8204600F053
:1010000007FC2046022100F01BF80AB010BD0000CA
:1010100040F25010C2F2000000F0B4BC40F20C10DC
:10102000C2F2000000F0AEBC70470000012000F0EA
:1010300021BE0000EFF3108072B600BFFEE7000093
:1010400090F82020013A012A08D8006800F1140223
:101050000020136819431160704700BF00F124029B
:1010600001204FF48021136819431160704700007C
:1010700010B590F820E0D0F800C0AEF1010EBEF13E
:10108000010FDCF808E011D81EF0E05F18D0CEF3B5
:10109000016E012000FA0EF018608B68D3B1486829
:1010A000CC6844EAC000034318E000BF00F124010B
:1010B00001204FF480220B681A430A6010BD00BF64
:1010C00000F1240101204FF400120B681A430A605A
:1010D00010BD00BF0868CB6843EA40530CEB0E100C
:1010E000C0F880310B69C0F88431097D012905D130
:1010F00000F5C2710B6843F480730B605168C0F84F
:101100008C11126800F5C071C0F8882100200122FE
:101110000B681A430A6010BDB0B5026890F8203021
:10112000013B012B28D8D2F80002012340F0010036
:10113000C2F80002D1F814E0CC690EF01F0003FAE7
:1011400000F0D2F81C326FEA000C8343012CC2F885
:101150001C3217D06CBBD2F80C3203EA0C03C2F875
:101160000C32CB688C8844EA034302EBCE04C4F80B
:1011700040320B4615E000BF416A41F480214162D4
:101180000120B0BDD2F80C320343C2F80C320B6818
:101190008C8844EA034302EBCE04C4F8403201F1E8
:1011A0000C038C681B8843EA044302EBCE04C4F8AA
:1011B0004432D2F804328D6943EA0004D1F810E0D9
:1011C000096A002D08BF03EA0C04C2F80442D2F8F1
:1011D0001432BEF1000F43EA000408BF03EA0C0416
:1011E0000129C2F8144204D1D2F81C120843C2F8F3
:1011F0001C02D2F8000220F00100C2F80002002018
:10120000B0BD000090F82020013A012A06D80068FD
:10121000426922EA0101416100207047416A41F4BC
:1012200080214162012070477047000010B590F89E
:101230002040013C012C7BD8D0F800C0002900F0F0
:101240008180DCF81040A40700F081800CEB011CC9
:10125000DCF8B0410CF5D87E14F004049460DCF89E
:10126000B04119BFE4085460640D1460DEF800401A
:101270000CF5DA7E04F00204D460DCF8B4412407F3
:101280005ABFDEF8004004F00F0408241461DEF8B1
:1012900000400029C4F307249461DEF800404FEABF
:1012A00014445461DCF8B8211A70026802EB011290
:1012B000D2F8B8214FEA12225A70026802EB0112EA
:1012C000D2F8B8214FEA12429A70026802EB01127A
:1012D000D2F8B8214FEA1262DA70026802EB01120A
:1012E000D2F8BC211A71026802EB0112D2F8BC21BB
:1012F0004FEA12225A71026802EB0112D2F8BC21A5
:101300004FEA12429A71026802EB0112D2F8BC2134
:101310004FEA1262DA71006814BF00F1100100F1A7
:101320000C01002020220B681A430A6010BD00BF88
:1013300000F1240101204FF480220B681A430A6057
:1013400010BD00BFDCF80C40A4077FF47FAF00F1B4
:10135000240101204FF400120B681A430A6010BDEB
:101360002DE9F04F81B0044600684669D0F804903A
:101370008768D0F80CB0D0F810A0D0F81880F1072A
:1013800004D1002530071DD424E000BFF90710D098
:101390000121BA07816009D4780700F1AF803807CE
:1013A00000F1B680204600F061FA02E0204600F02D
:1013B0005FFA0025F80500F18780F80300F1B1809D
:1013C000300707D51BF0100004D0206845F40075E5
:1013D0001021C160700708D51BF0080005D02068F7
:1013E0000821C160204600F0D3F9B00706D5206877
:1013F000C068800702D0204600F0CCF9700607D5FF
:101400001AF0100004D0206845F4806510210161B5
:10141000B00608D51AF0080005D02068082101613F
:10142000204600F0EFF9F00606D520680069800735
:1014300002D0204600F0E8F9B00308D519F01000FA
:1014400005D0206810214160204600F0DFF9F0034C
:1014500008D519F0080005D0206808214160204611
:1014600000F010FA300440F19B805FEA497040F1CF
:10147000948006F4807008EA102028435FEA88719F
:10148000014648BF41F00201B20558BF01465FEA7C
:1014900048700D4648BF45F00405700558BF0D461D
:1014A000300540F17A8018F0700000F07680103836
:1014B000000905286CD8DFE800F003595D61656913
:1014C00045F0080564E000BF20684FF48071BA055C
:1014D00081600BD4780515D438051DD4204600F062
:1014E000C9F9F8037FF56CAF1BE000BF204600F0A0
:1014F000C3F9F8037FF564AF13E000BF4FF4006554
:1015000058E700BF05F50055F8037FF559AF08E02F
:101510004FF480554EE700BF05F58045F8037FF591
:101520004FAF20684FF48031BA0381600AD478034A
:1015300010D4380314D4204600F0A0F930073FF54A
:1015400041AF47E7204600F09BF930073FF53AAF3F
:1015500040E700BF05F5004530073FF533AF39E7F9
:1015600005F5803530073FF52DAF33E745F0100521
:101570000EE000BF45F020050AE000BF45F0400541
:1015800006E000BF45F0800502E000BF45F480752D
:101590002068816921F07001816120680421416027
:1015A00055B1606A40EA05012046616201B0BDE8BC
:1015B000F04FFFF739BE00BF01B0BDE8F08F00006B
:1015C000B0B5C8B1044690F8200010B9204600F02C
:1015D00071F82068016841F00101016000F072FCBF
:1015E000054600BF20684168C90707D100F06AFCC2
:1015F000401B0B28F6D312E00120B0BD016821F09A
:101600000201016000F05EFC054600BF20684168F1
:1016100089070DD500F056FC401B0B28F6D3606AF5
:10162000052140F400306062012084F82010B0BD34
:10163000217E0268012922F0800208BF8032026008
:10164000617E0268012922F0400208BF4032026038
:10165000A17E0268012922F0200208BF2032026028
:10166000E17E0268012922F0100218BF10320260E8
:10167000217F0268012922F0080208BF08320260B7
:10168000617F0268012922F0040208BF043202606F
:10169000D4E901C2D4E9033561691A432A431143ED
:1016A000ACF101021143C16100200121606284F8A4
:1016B0002010B0BDB0B586B0006846F20042C4F25A
:1016C000000200219042059102D006B0B0BD00BFDB
:1016D00041F21800C4F20200426840F6004442F0B1
:1016E000007242604268C4F2010402F0007201928A
:1016F000019A026802AD42F008020260006800F040
:101700000800019001984FF48070CDE9020101209A
:1017100004902046294600F0B9FA4FF40070029078
:1017200002200390032005902046294600F0AEFADF
:101730000420C4F20100016849F6FF72CFF6FF02EF
:10174000114041F0E06141F480410160132000212B
:10175000002200F039FC132000F022FC14200021AC
:10176000002200F031FC142000F01AFC15200021AA
:10177000002200F029FC152000F012FC16200021A8
:10178000002200F021FC162000F00AFC06B0B0BDDB
:101790007047000080B58AB003AA01AB0021FFF7B3
:1017A00045FD40F2E00CBDF80400C2F2000CDCF88C
:1017B000003001BAC3EB114140F278020B46C2F28D
:1017C000000211F5805FB8BF03F50053B1F5805FEB
:1017D000C8BFA1F50053516840BA19445160BDF823
:1017E00006101060CCF8000008BABDF80810000C14
:1017F000108108BA9DF80A10000C508111730AB0CC
:1018000080BD000070470000704700007047000076
:10181000B0B5044690F8200001281DD1022084F8BC
:1018200020002068016821F00101016000F04AFBFE
:10183000054600BF20684068C00713D000F042FB97
:10184000401B0B28F6D3606A40F40030606205202C
:1018500084F820000120B0BD606A40F4002060627E
:101860000120B0BD00206062B0BD000070470000E4
:10187000704700007047000070470000704700008C
:101880007047000070470000014690F821000228D0
:1018900016D10868D1E90FC3026822F00E02026077
:1018A000026822F001020260012000FA03F2CCF883
:1018B000042081F821000020002281F820207047B8
:1018C000042088630120002281F820207047000056
:1018D00080B590F82110022924D10268116821F006
:1018E0000E0111602F211368C4F202018A4240F2F6
:1018F0000401C4F2020123F00103136016DD30235A
:10190000C4F202039A421DD04423C4F202039A4255
:101910001CD05823C4F202039A421DD14FF48033E5
:1019200022E000BF04218163012080BD0823C4F2AE
:1019300002039A420ED01C23C4F202039A420BD136
:10194000102311E04FF480730EE000BF4FF480537A
:101950000AE000BF012307E001F1680C4FF080733B
:10196000624508BF4FF480130B60012180F82110FD
:10197000426B002180F820100AB1904700210846F0
:1019800080BD000010B5D0E90FCE0168DCF8003052
:101990000A6823FA0EF35C072AD512F0040427D054
:1019A0000A68920603D40A6822F004020A602F2211
:1019B000C4F20202914240F20402C4F202025BDD70
:1019C0003023C4F20203994272D04423C4F20203CA
:1019D000994273D05823C4F20203994240F07A80AE
:1019E0004FF480231360C16A002940F098806FE0B3
:1019F0009C0727D512F0020424D00A68920606D468
:101A00000A6822F00A020A60012280F821202F22AF
:101A1000C4F20202914240F20402C4F202023BDD2F
:101A20003023C4F20203994260D04423C4F202037B
:101A300099425FD05823C4F20203994260D14FF417
:101A4000003365E01B0743D512F0080208BF10BD44
:101A50000A6822F00E020A60012101FA0EF2CCF8A7
:101A60000420816380F82110016B0022002980F896
:101A7000202054D12CE000BF0823C4F20203994275
:101A800022D01C23C4F20203994223D140231360C5
:101A9000C16A002943D11BE00823C4F20203994222
:101AA0002CD01C23C4F20203994229D120232FE019
:101AB0004FF480631360C16A89BB09E04FF480432F
:101AC0001360C16A59BB03E004231360C16A31BBD0
:101AD00010BD00BF02F168044FF08063A14208BF4F
:101AE0004FF480031360C16AC9B9F1E74FF4007382
:101AF0000EE000BF4FF400530AE000BF022307E0EE
:101B000002F168044FF00073A14208BF4FF40013C4
:101B10001360816A0022002980F82020D8D0BDE817
:101B200010400847014600284FF0010008BF7047E9
:101B30002DE9F043D1F800C04FF6F873CBF6FD73F2
:101B40004CF6CD426344CCF6CC42A3FB02236FF0AB
:101B5000030707EA93030027C4F2020701F10C0907
:101B6000C1E90F730223D1E9012E99E87002D1F87F
:101B70001C8081F82130DCF8003043F6F077BB435D
:101B80001A4342EA0E0222432A43324342EA09023E
:101B900042EA0802CCF8002000228A6381F8210082
:101BA00081F820200020BDE8F0437047F0B590F8A0
:101BB00020C0BCF1010F32D04FF0010E80F820E0C0
:101BC00090F821C0BCF1010F26D14FF0020C80F833
:101BD00021C04FF0000CC0F838C0D0E900C4C56A7D
:101BE000C66BDCF80070102C27F00107CCF80070F1
:101BF000006C0EFA00F070600846CCF8043004BFA8
:101C000010460A46CCF80800CCF80C20DCF800009E
:101C100045B140F00E000DE0002180F820100220B8
:101C2000F0BD00BF20F00400CCF80000DCF800009C
:101C300040F00A00CCF80000DCF8000040F00100A1
:101C4000CCF800000020F0BDB0B5044600F03AF931
:101C5000054640F20000C2F200000078611C18BF87
:101C6000044400BF00F02EF9401BA042FAD3B0BDDF
:101C70007047000040F21441C4F201010A680242B8
:101C800014BF08607047FFF7F3BF00002DE9F04F65
:101C900082B00E68002E00F0038141F20042C4F2CF
:101CA0000102042340F2004E904208BF03234FF686
:101CB000FF7CC4F2010E009300240123C1F2100C3A
:101CC0004FF0000A4FF0000949E000BF012704F07F
:101CD0000C030F229A402BEA020207FA03F34FEAA1
:101CE0009A051A4346F82520D1F804B040F20C4575
:101CF0005FEACB22DEF8082054BF22EA080242EA5B
:101D00000802C4F20105CEF808202A685FEA8B2396
:101D100054BF22EA080242EA08022A605FEA8B33D3
:101D2000DEF8042054BF22EA080242EA08025FEA11
:101D3000CB33CEF80420DEF800204FF0010354BF6F
:101D400022EA080242EA0802CEF800200E680AF1F0
:101D5000010A36FA0AF204F1040400F0A18003FA41
:101D60000AF816EA080FF1D04E68664512DC122E0A
:101D700056D8DFE806F0350B4549555555555555AC
:101D8000555555555555554D510000BFD1F80C903E
:101D900046E000BF4FF6FF72C1F2210296420FDC0F
:101DA0000022C1F2110296421AD00022C1F21202A0
:101DB000964215D00022C1F22102964210D02FE0A7
:101DC0000022C1F2220296420AD00022C1F2310260
:101DD000964205D00022C1F23202964220D100BFC5
:101DE0008A684AB1012A14BFC0F81480C0F8108074
:101DF0004FF0080914E000BF4FF0040910E000BFE5
:101E0000CA6802F108090BE04FF0000908E000BFC2
:101E1000CA6802F1040903E0CA6802F10C0900BFB4
:101E200022460646BAF1080F24BF203A0436376826
:101E30000F25954027EA050509FA02F22A43326088
:101E4000CA79D2067FF582AF41F21803C4F20203C9
:101E50001A68AEF57E7642F001021A601A6802F046
:101E600001020192019A2AF0030256F802B040F6EC
:101E70000002C4F20102904210D040F60042C4F2C7
:101E8000010290423FF422AF41F20002C4F201028B
:101E9000009F904208BF022719E700BF002716E7FE
:101EA00002B0BDE8F08F0000C26802EA010391436E
:101EB00041EA034101617047002A08BF090401613A
:101EC0007047000040F2BC20C2F20000006870477A
:101ED00040F2000040F2BC21C2F20000C2F2000158
:101EE00000780A68104408607047000080B542F22C
:101EF0000000C4F20200016841F0100101600320FB
:101F000000F08EF80F2000F005F800F027F8002010
:101F100080BD000070B540F20006C2F2000640F23B
:101F200008013278C2F200014FF47A730968B3FBFA
:101F3000F2F20446B1FBF2F1084600F06BFB0F2C05
:101F40004FF0010508D838B94FF0FF302146002284
:101F5000002500F039F87460284670BD82B041F267
:101F60001800C4F202000168022241F00101016080
:101F7000016801F0010101910199416841F080512E
:101F80004160406800F08050009000980420C4F246
:101F90000100016862F31A61016002B0704700003D
:101FA000002848BF7047C1B200F01F00012202FAAA
:101FB00000F04EF20012CEF2000242EAD10121F00E
:101FC000030108607047000010B54EF60C5CCEF2BD
:101FD000000CDCF80030C3F3022E8EF00704042C52
:101FE00028BF0424BEF103034FF0FF3E0EFA04F4B1
:101FF00038BF0023A14399400EFA03F39A431143DB
:1020000000F00F0200F160430901043A03F5644354
:102010006244002848BF02F10C03197010BD000093
:102020004EF60C51CEF200010A684FF6FF031A403B
:1020300060F30A2242F0806040F0FD700860704753
:102040002DE9F04381B0002800F0878042F20008BB
:10205000C4F202080446D8F800000D4600F007005C
:1020600088420CD2D8F8000020F007002843C8F8B6
:102070000000D8F8000000F00700A8426DD12068E9
:1020800041F204098107C4F2020917D5410705D5B9
:10209000D9F8001041F4E061C9F80010010705D536
:1020A000D9F8001041F46051C9F80010D9F80010B7
:1020B000A26821F0F0011143C9F80010C00743D114
:1020C000D8F8000000F00700A8420CD9D8F80000AA
:1020D00020F007002843C8F80000D8F8000000F0FE
:1020E0000700A84239D12068410707D5D9F8001068
:1020F000E26821F4E0611143C9F80010000708D537
:10210000D9F80000216920F4605040EAC100C9F804
:102110000000D9F8001041F6003001F00C02042A4A
:10212000C0F2B70058D0082A44D145F66873C1F30D
:102130008342C0F600039A5CC90341D440F6001004
:10214000C0F23D00504347E0606802280AD00128F1
:102150002AD159F8041C890308D4012001B0BDE834
:10216000F08300BF59F8041C8901F6D5D9F8001096
:1021700021F003010843C9F80000FFF7A3FE06465B
:1021800041F28837D9F80000616800F00C00B0EB2C
:10219000810F95D0FFF796FE801BB842F2D903203D
:1021A00001B0BDE8F08300BF59F8041C8907D4D5FD
:1021B000DCE700BF41F20020C0F27A000CE000BF73
:1021C000D9F8001045F66473C1F34041C0F600032E
:1021D000595C5043B0FBF1F0D9F8001045F64C7251
:1021E000C1F30311C0F60002515C40F2080220FA6C
:1021F00001F140F20400C2F200000068C2F20002E5
:102200001160FFF787FE002001B0BDE8F0830000F9
:1022100040F2080041F20401C2F20000C4F20201DF
:102220000068096845F65C72C1F30221C0F600023D
:10223000515CC8407047000040F2080041F20401C0
:10224000C2F20000C4F202010068096845F65C723F
:10225000C1F3C221C0F60002515CC84070470000C3
:102260002DE9F04182B0002868D00446007841F2A0
:102270000006C007C4F2020625D0706800F00C000A
:1022800004281BD0706800F00C00082802D1706888
:10229000C00313D46068002800F06881B0F5A02F57
:1022A00000F07C81B0F5803F00F07C81306820F444
:1022B00080303060306820F4802076E13068800320
:1022C00001D56068D0B32078800718D5706810F009
:1022D0000C0F07D0706800F00C0008286ED17068F1
:1022E000C0036BD43068800702D52069012825D14E
:1022F0003068616920F0F80040EAC1003060207861
:1023000000071FD42078400732D4E56995B1706882
:1023100000F00C00082840F08F80012D0ED070686E
:10232000216A00F480328A4208D1616A00F4701098
:10233000884203D1002002B0BDE8F081012002B044
:10234000BDE8F081A069002862D00020C4F24220DC
:102350000121C0F88014FFF7B5FD0546706A8007BB
:1023600000F18C80FFF7AEFD401B0228F6D92AE170
:10237000F06910F0805808D1F06940F08050F061A9
:10238000F06900F080500090009847F20007C4F216
:1023900000073868C00529D4386840F48070386078
:1023A000FFF790FD054600BF3868C0051ED4FFF753
:1023B00089FD401B6428F7D905E100BF206900288A
:1023C00040F20000C4F2422000F08280012101604E
:1023D000FFF778FD054600BF306880073FF588AFFE
:1023E000FFF770FD401B0228F6D9ECE0E0680028FA
:1023F00000F08080052800F09780012800F0988088
:10240000306A20F001003062306A20F0040092E06F
:102410000020C4F242200021C0F88014FFF752FDD2
:10242000054600BF706A80077FF56CAFFFF74AFD75
:10243000401B0228F6D9C6E00027C4F2422700203C
:102440003866FFF73FFD022D05460BD1306880014D
:1024500040F1BE80FFF736FD401B02284FF003001D
:10246000F4D968E7306880017FF564AFFFF72AFD93
:10247000401B02284FF00300F4D95CE740F208004B
:10248000C2F20000006844F6D351C1F26201A0FB21
:102490000101480A019000BF00BF0198411E0028B9
:1024A00001913FF42FAF00BF0198411E0028019118
:1024B0003FF428AF00BF0198411E002801913FF46E
:1024C00021AF00BF0198411E00280191E4D119E716
:1024D00000210160FFF7F6FC054600BF3068800769
:1024E0007FF50DAFFFF7EEFC401B02284FF0030015
:1024F000F4D920E7306A20F001003062306A20F021
:1025000004003062FFF7DEFC054641F2883700BF69
:10251000306A800720D5FFF7D5FC401BB8424FF04A
:102520000300F5D907E700BF306A40F004003062CD
:10253000306A40F001003062FFF7C4FC054641F20A
:10254000883700BF306A800706D4FFF7BBFC401B0A
:10255000B842F7D937E000BFB8F1000F7FF4D5AE2D
:10256000F06920F08050F061CFE600BF306820F4C1
:1025700080303060306820F480203060FFF7A2FCAB
:10258000054600BF306880037FF59DAEFFF79AFCDB
:10259000401B64284FF00300F4D9CCE6306840F4C7
:1025A00080203060306840F480303060FFF78AFC73
:1025B000054600BF306880033FF585AEFFF782FC1B
:1025C000401B6428F6D9032002B0BDE8F08100BFAB
:1025D000206AB0F5803F05D17168A26821F400310E
:1025E000114371607168626A21F4741111430843E8
:1025F000706001203866FFF765FC04463068800192
:102600003FF598AEFFF75EFC001B02284FF0030079
:10261000F4D990E6411E0020B0EB116F1CBF0120E1
:1026200070474EF21002CEF2000251604EF6235176
:10263000CEF20001F0230B7007219060116070470B
:10264000704700007047000010B590F83C20012A48
:102650004FF0020233D080F83D200268D2F804E047
:10266000D2F808C00C682EF07003234340F2FF74C8
:10267000C4F20004A24253600ADCB2F1804F13D0CE
:1026800040F20043C4F200039A420DD011E000BFB3
:1026900042F60043C4F201039A4205D040F600031B
:1026A000C4F200039A4204D149682CF08003194314
:1026B00091600121002280F83D1080F83C201046F6
:1026C00010BD0000002804BF0120704710B504466B
:1026D00090F83D0028B9002084F83C00204600F026
:1026E0006FF8022084F83D00206840F2FF73026812
:1026F000C4F2000342F6004C9842C4F2010C15DC0F
:10270000B0F1804F1AD040F20041C4F2000188427B
:1027100014D0984218DCB0F1804F1DD040F2004137
:10272000C4F20001884217D01AE000BF604505D00E
:1027300040F60001C4F200018842EAD1A16822F00B
:1027400070020A439842E6DD604505D040F600017C
:10275000C4F20001884203D1216922F440720A4385
:10276000A36922F08001D4F804E0E26819436045CF
:102770000160C262C0F828E002D16169CCF8301073
:10278000012141610269D20703D0026922F00102EE
:102790000261002084F8461084F83E1084F83F104F
:1027A00084F8401084F8411084F8421084F84310F3
:1027B00084F8441084F8451084F83D1010BD0000E2
:1027C00010B582B0006840F60001C4F200018842F2
:1027D00014D040F20041C4F20001884228D141F2F5
:1027E0001C00C4F2020001681D2441F002010160D6
:1027F000006800F00200019001980DE041F21C0019
:10280000C4F2020001681E2441F004010160006866
:1028100000F0040000900098204600210022FFF7FD
:10282000D3FB204602B0BDE81040FFF7B9BB00BFA4
:1028300002B010BD90F83D1001291CBF0120704767
:10284000022180F83D10006840F2FF72C168C4F2B6
:102850000002904241F00101C16009DCB0F1804FFB
:1028600012D040F20041C4F2000188420CD012E0C4
:1028700042F60041C4F20101884205D040F6000151
:10288000C4F20001884206D1816801F007010629DF
:1028900004BF00207047016841F001010160002081
:1028A0007047000080B590F83C20012A4FF00202EA
:1028B00000F0C28080F83D20D0F800C04FF677725B
:1028C000DCF8083023EA0202CCF808200B684F2B12
:1028D00028DC1F2B44DD202B45D0302B43D0402B50
:1028E00040F0AC80D1F804E0C968DCF82030DCF8B6
:1028F000202022F00102CCF82020DCF8182022F061
:10290000F00242EA011123F00A0242EA0E02CCF878
:102910001810CCF82020DCF8081041F0470121F015
:10292000300180E06F2B27DDB3F5005F48D0B3F5B1
:10293000805F7AD0702B40F08180D1E901E3C968D3
:10294000DCF8082043EA0E0322F47F4243EA012127
:102950001143CCF80810DCF8081041F0770162E070
:102960000BB1102B6AD1DCF8081021F0700119436B
:1029700041F0070157E000BF502B35D0602B5DD1EF
:10298000D1F804E0C968DCF82030DCF8202022F01F
:102990001002CCF82020DCF8182022F4704242EA21
:1029A000013123F0A00242EA0E12CCF81810CCF844
:1029B0002020DCF8081041F0670121F0100132E01E
:1029C000D1E901E3C968DCF8082043EA0E0322F4E8
:1029D0007F4243EA01211143CCF80810DCF80810CB
:1029E00041F480411FE000BFD1F804E0C968DCF881
:1029F0002030DCF8202022F00102CCF82020DCF886
:102A0000182022F0F00242EA011123F00A0242EA01
:102A10000E02CCF81810CCF82020DCF8081041F099
:102A2000570121F02001CCF808100022012180F884
:102A30003D10002180F83C10104680BD0122F5E7D2
:102A40007047000070B504460068C5680669B107A4
:102A500016D515F0020113D06FF0020101610121BA
:102A600021778069800703D02046FFF7E9FF05E062
:102A7000204600F08FF8204600F08EF800202077E6
:102A8000700719D515F0040016D020686FF0040106
:102A9000016102212177806910F4407F04D0204633
:102AA000FFF7CEFF06E000BF204600F073F8204697
:102AB00000F072F800202077300717D515F00800D5
:102AC00014D020686FF00801016104212177C069EA
:102AD000800703D02046FFF7B3FF05E0204600F053
:102AE00059F8204600F058F800202077F00619D554
:102AF00015F0100016D020686FF010010161082158
:102B00002177C06910F4407F04D02046FFF798FF7A
:102B100006E000BF204600F03DF8204600F03CF8FB
:102B200000202077F00718BF15F0010002D1300611
:102B300009D412E020686FF001010161204600F025
:102B40002DF8300609D515F0800006D020686FF00A
:102B5000800101612046FFF773FD700609D515F06D
:102B6000400006D020686FF040010161204600F06F
:102B700061F8B00658BF70BD15F0200008D021687C
:102B80006FF0200220460A61BDE87040FFF75ABD91
:102B900070BD0000704700007047000070B500680D
:102BA00040F20041C4F2000188420DD040F600011D
:102BB000C4F20001884218BF70BD40F27000C2F23A
:102BC00000000121417070BD40F27005C2F20005A5
:102BD000287808B170BD00BF40F2E4060120C2F2BF
:102BE0000006287030460221FEF70CFB40F26C21F3
:102BF000C2F20001AA2008706868EA68D5F81230AD
:102C0000D5E90645C1F8090040F22420C1F80120A9
:102C1000C2F200001522C1F80530C1F80D40C1F81C
:102C2000115000F0F3FC30460221BDE87040FEF781
:102C300007BA00007047000070B582B0044690F8F3
:102C4000420020280AD113460A4600294FF001000D
:102C500018BF002B06D102B070BD00BF022002B029
:102C600070BD00BF01202063002522206563A262A1
:102C7000A385656484F842002168E06B43F6CD7C4F
:102C800044F22D1E43F65166C0F6000CC0F6000E4D
:102C9000C0F600060431C0E90ACEC0E90C65FEF7B3
:102CA00085FF0195206801680191406801900198B5
:102CB000206928B3206850E8030F216840F4807031
:102CC00041E80302E2B1206850E8030F216840F4B4
:102CD000807041E803029AB1206850E8030F216830
:102CE00040F4807041E8030252B1206850E8030FBD
:102CF000216840F4807041E80302002ADAD100BF65
:102D0000206850E8050F216840F0010041E8050205
:102D1000BAB3206850E8050F216840F0010041E88F
:102D2000050272B3206850E8050F216840F00100E9
:102D300041E805022AB3206850E8050F216840F0F9
:102D4000010041E80502002ADAD11AE0206850E8C3
:102D5000050F216840F0400041E80502DAB1206823
:102D600050E8050F216840F0400041E8050292B1AB
:102D7000206850E8050F216840F0400041E8050256
:102D80004AB1206850E8050F216840F0400041E852
:102D90000502002ADAD1206B01282FD100200090F3
:102DA000206801680091406800900098206850E811
:102DB000030F216840F0100041E80302DAB12068F7
:102DC00050E8030F216840F0100041E8030292B17F
:102DD000206850E8030F216840F0100041E803022A
:102DE0004AB1206850E8030F216840F0100041E824
:102DF0000302002ADAD1002002B070BD012002B027
:102E000070BD000040F22421C2F20001884218BFC8
:102E100070472DE9F04381B040F29008C2F20008FB
:102E200040460A21FDF7DEF9F0B140F2900740F28A
:102E3000AC260546C2F20007C2F200064FF00009B8
:102E4000E81BC4B20F2C28BF0F2430463946224657
:102E5000FDF7E4F96F1C38460A2106F80490FDF7E7
:102E6000C1F905460028EBD140F60000C4F201008C
:102E70004FF40041FFF718F840F2AC20C2F2000016
:102E800000F056FF002340F22420C8F81C30C8F898
:102E90001830C8F81430C8F81030C8F80C30C8F82A
:102EA0000830C8F80430C2F2000041462022C8F8B9
:102EB000003001B0BDE8F043FFF7BEBE7047000030
:102EC000B0B582B0044600680168C368426901F089
:102ED0002F05202D03F0200506D12DB1204602B08C
:102EE000BDE8B04001F02EB95FEA017C1EBF02F0E0
:102EF000010E03F4907212EB0E0253D1226B012AE1
:102F000005D111F0100218BF13F0100236D10A06D5
:102F100022D513F080021FD094F8411021293FD10F
:102F2000A168B1F5805F03D12169002900F07082AA
:102F3000216A4A1C226209784160E18C01390A0445
:102F4000E1842DD1C16821F08001C160C16841F0E8
:102F50004001C16002B0B0BD490621D513F0400167
:102F60001ED0C16821F04001C1602021204684F8B4
:102F7000411002B0BDE8B04000F064BB00210191F7
:102F8000016801914168019101994069400613D49B
:102F9000A08DE18DE28D002A18BF884240F0BA81F1
:102FA00002B0B0BDCA0718BF13F4807240F0B680FB
:102FB0004A0700F1B980BEE0E06B016849688AB257
:102FC000002AEDD0A38D9A42EAD2E18580692028BB
:102FD00000F09C80206850E8030F216820F4807086
:102FE00041E80302DAB1206850E8030F216820F4B9
:102FF000807041E8030292B1206850E8030F216815
:1030000020F4807041E803024AB1206850E8030FC1
:10301000216820F4807041E80302002ADAD1206898
:1030200050E8050F216820F0010041E80502DAB1FF
:10303000206850E8050F216820F0010041E80502F2
:1030400092B1206850E8050F216820F0010041E8A6
:1030500005024AB1206850E8050F216820F0010000
:1030600041E80502002ADAD1206850E8050F2168FE
:1030700020F0400041E80502DAB1206850E8050F71
:10308000216820F0400041E8050292B1206850E834
:10309000050F216820F0400041E805024AB1206890
:1030A00050E8050F216820F0400041E80502002AA1
:1030B000DAD1202084F8420000202063206850E804
:1030C000030F216820F0100041E80302DAB1206804
:1030D00050E8030F216820F0100041E8030292B18C
:1030E000206850E8030F216820F0100041E8030237
:1030F0004AB1206850E8030F216820F0100041E831
:103100000302002ADAD1E06BFEF7BEFB0220606307
:10311000A08DE18D401A81B2204674E1626C42F0CC
:10312000010262644A0706D5BEF1000F03D0626C4B
:1031300042F0020262648A0706D5BEF1000F03D096
:10314000626C42F004026264BCF1000F09D545EAEA
:103150000E02B2FA82F2520903D1626C42F0080206
:103160006264626C002A3FF41BAF11F0200118BFAB
:10317000002D03D0204600F0E5FF20684069616C17
:1031800000F0400001F00801401800F0B58000BFD9
:10319000206850E8030F216820F4907041E8030292
:1031A000BAB3206850E8030F216820F4907041E81A
:1031B000030272B3206850E8030F216820F4907076
:1031C00041E803022AB3206850E8030F216820F485
:1031D000907041E80302002ADAD11AE0206850E832
:1031E000050F216820F0010041E80502DAB12068EE
:1031F00050E8050F216820F0010041E8050292B176
:10320000206850E8050F216820F0010041E8050220
:103210004AB1206850E8050F216820F0010041E81C
:103220000502002ADAD1206B012824D1206850E859
:10323000030F216820F0100041E80302DAB1206892
:1032400050E8030F216820F0100041E8030292B11A
:10325000206850E8030F216820F0100041E80302C5
:103260004AB1206850E8030F216820F0100041E8BF
:103270000302002ADAD1202084F8420000202063D3
:103280002068406940063FD5206850E8050F216856
:1032900020F0400041E80502DAB1206850E8050F4F
:1032A000216820F0400041E8050292B1206850E812
:1032B000050F216820F0400041E805024AB120686E
:1032C00050E8050F216820F0400041E80502002A7F
:1032D000DAD1E06BC0B143F64561C0F6000141634D
:1032E000FEF7F6FA00283FF45BAEE06B416B02B0EC
:1032F000BDE8B040084700BF2046FFF7DFFD0020D3
:10330000606402B0B0BD00BF204602B0BDE8B0406E
:10331000FFF7D4BD401A216851E8031F226821F449
:10332000907142E80313DBB1216851E8031F226862
:1033300021F4907142E8031393B1216851E8031F0F
:10334000226821F4907142E803134BB1216851E8DF
:10335000031F226821F4907142E80313002BDAD195
:10336000216851E8051F226821F0010142E8051398
:10337000DBB1216851E8051F226821F0010142E814
:10338000051393B1216851E8051F226821F001015E
:1033900042E805134BB1216851E8051F226821F06E
:1033A000010142E80513002BDAD1202184F84210F4
:1033B00000212163216851E8031F226821F01001D8
:1033C00042E80313DBB1216851E8031F226821F0B2
:1033D000100142E8031393B1216851E8031F2268EA
:1033E00021F0100142E803134BB1216851E8031F9B
:1033F000226821F0100142E80313002BDAD10222E7
:1034000081B22046626302B0BDE8B040FFF7FABC6B
:10341000216A31F8022B6FF35F22426021628CE552
:10342000002804BF0120704710B5044690F8410001
:1034300028B9002084F84000204600F063F82420DA
:1034400084F841002068D4E90212C36823F40053D1
:10345000C360036923F440531A430261D4E904238F
:103460001143C268194341F20C639A431143C1608E
:103470004169A26921F44071114343F60002C4F28C
:1034800001029042416103D0FEF7C2FE02E000BF9C
:10349000FEF7D2FE6268192148439100B0FBF1F0BB
:1034A00048F21F51C5F2EB11A0FB01235A094FF658
:1034B0009C73C0F6FF7302FB0300322303EB001082
:1034C000A0FB0101F02303EA5113206803EB021271
:1034D000C1F3431111448160016921F490410161FC
:1034E000416921F02A014161C16841F40051C16084
:1034F00000202021606484F8411084F84210606349
:1035000010BD00002DE9F04186B040F600450446AC
:10351000C4F201050068A5F54441002788420497DC
:1035200002D006B0BDE8F08141F21800C4F20200FA
:10353000416802AE41F480214160416840F21C08BC
:1035400001F48021019101990168C4F2020841F05F
:10355000080101600068314600F008000190019800
:103560004FF48060029002200390032005902846CB
:10357000FEF78CFB4FF40060CDE902072846314688
:103580000497FEF783FB40F20C1508F11400C2F219
:10359000000580264FF40051C5E900072846C5E91B
:1035A0000276C5E90477C5E90671FEF7BBFA002883
:1035B00018BFFDF73FFDE5636C6240F25015C2F2A3
:1035C0000005102000214FF44052C5E90080284634
:1035D000C5E90216C5E90411C5E90612FEF7A2FA0B
:1035E000002818BFFDF726FD272000210022A56333
:1035F0006C62FEF7E9FC2720FEF7D2FC06B0BDE8BE
:10360000F08100007047000070470000034690F80A
:10361000410020281CBF0220704700294FF0010004
:1036200018BF002A00D170471962002021219A8416
:10363000DA84586483F841101968CA6842F080023D
:10364000CA60704740F22421C2F20001884218BFCC
:10365000704740F27000C2F2000000210170704714
:10366000FEE700002DE9F04F85B00C460546FEF759
:1036700029FC40F2780BC2F2000BDBF804900646FE
:10368000FEF720FC801B40F6B731884238D80494FE
:1036900040F2D80440F2E40A0027C2F20004C2F269
:1036A000000A40F6B8384846CDF80C900AE000BF52
:1036B000002781460520FEF7C7FAFEF703FC801BB2
:1036C00040451DD2FEF7FEFB2168401A0A280BD3A5
:1036D00050464FF400712A462B460095019500F0A4
:1036E000BBFEFEF7EFFB2060DBF80400B0EB090146
:1036F00048BF49420929DBD8042F05D20137D9E751
:10370000002005B0BDE8F08F0399401A04990860C5
:10371000012005B0BDE8F08F2DE9F04383B045F6F8
:103720006671C0F6000140F2C0280D88C2F20008A0
:10373000032040F2780498F8009088F8000068426E
:10374000C2F2000404F1100100B2FFF78BFF002861
:1037500008BFFDF76FFC28B204F11401FFF782FFE8
:10376000002808BFFDF766FCD4E904010844606145
:10377000FEF7A8FB0446FEF7A5FB001B40F6B73199
:1037800088421CD805EBD53000B2002140F2E40697
:10379000A1EB6005C2F2000640F6B83730464FF4A0
:1037A00000712A462B460095019500F055FE0A202F
:1037B000FEF74AFAFEF786FB001BB842EED340F252
:1037C000E4000027C2F200004FF400710022002341
:1037D00088F800900097019700F03EFE03B0BDE826
:1037E000F083000080B540F2E40046F20041C2F2EE
:1037F0000000C4F2000100234FF4803C092280E85D
:103800000E00C0E9033CC0E905338383FDF7D8FE11
:10381000002808BF80BDBDE88040FDF70BBC00005C
:1038200080B582B041F21400C4F2020001680022A7
:1038300041F0010101600068002100F001000190E9
:1038400001980C20FEF7C0FB0C20FEF7A9FB0D2011
:1038500000210022FEF7B8FB0D2002B0BDE8804039
:10386000FEF79EBBF0B585B00020049041F2180031
:10387000C4F20200016840F6000441F0200101603A
:103880000168C4F2010401F020010091009901686F
:10389000012241F00401016001684FF4004601F08B
:1038A0000401009100990168012741F008010160BD
:1038B00000684FF4004100F0080000900098204696
:1038C000FEF7FAFA0020C1F2210001ADCDE90207AE
:1038D000204629460197FEF7D9F902200490204698
:1038E0002946CDE901670397FEF7D0F906200021AC
:1038F0000022FEF769FB0620FEF752FB05B0F0BD83
:1039000080B586B040F294100021C2F2000040F26F
:1039100000424FF0C70C0591CDE90311CDE900112C
:10392000C4F2000240F2CF23C0E9021C01618021F1
:10393000C0E900238161FEF7C5FE002818BFFDF72E
:1039400079FB4FF48050029040F29410C2F20000D4
:1039500002A9FEF7A7FF002818BFFDF76BFB40F296
:103960009410C2F200006946FEF76EFE002818BFF0
:10397000FDF760FB06B080BD80B586B040F2DC107C
:103980000021C2F2000040F600024FF0630C0591E6
:10399000CDE90311CDE90011C4F2000240F2CF23BA
:1039A000C0E9021C01618021C0E900238161FEF7AA
:1039B00089FE002818BFFDF73DFB4FF480500290B0
:1039C00040F2DC10C2F2000002A9FEF76BFF0028F3
:1039D00018BFFDF72FFB40F2DC10C2F20000694671
:1039E000FEF732FE002818BFFDF724FB06B080BDAD
:1039F00080B540F2242044F60001C2F20000C4F277
:103A0000000100234FF00C0C4FF4165280E80E001A
:103A1000C0E90333C0E905C3C361FFF701FD002816
:103A200008BF80BDBDE88040FDF704BBFEE7000095
:103A30002DE9F04782B040F2C024C2F200042078A1
:103A4000032839D8DFE800F002123C7C40F2E400A1
:103A50000027C2F200004FF40071002200230097FB
:103A6000019700F0F9FC02B0BDE8F08740F278055C
:103A7000C2F20005286900286AD06969002967D068
:103A800040F2DC04C2F20004227800F5FA70002A49
:103A900018BFA1F5FA7040F27401C2F2000108608B
:103AA000086800F069F821786868002958D06969C9
:103AB000A1F5FA7188424DDA02B0BDE8F08700BF87
:103AC00040F2740940F27800C2F20009C2F200002C
:103AD000D9F800A0D0E90454284601F08CFB8046B8
:103AE000601B0F4601F087FB49F69A1249F69913BD
:103AF000C9F69912C3F6A97301F0D0FB42463B46C2
:103B000005460E4601F050FA01F046FB07462046F6
:103B100001F071FB2A46334601F0F4FC01F03CFB56
:103B20008245B8BF5046BA45B8BF3846C9F800000C
:103B3000D9F8000002B0BDE8F04700F01DB800BFA2
:103B4000FFF7EAFD0020207002B0BDE8F08700BF5B
:103B5000FDF770FA0020207002B0BDE8F08700BFCA
:103B6000296901F5FA718842A6DC0120207002B0B3
:103B7000BDE8F087FEE700002DE9F04F85B045F67F
:103B80006671C0F60001B1F90010054608460491BF
:103B900001F050FF4FF07A51834601F0CBFF0390C4
:103BA000284601F047FF40F27801C2F2000149685F
:103BB0000546084601F03EFF0146284602F086F819
:103BC00020F0004800218146C4F2FA31404601F05D
:103BD000F7FD40F2B00AC2F2000A08BB58464FF0A7
:103BE0007F5101F0A7FF56465D4656F818BF0446C0
:103BF000B168484601F09EFF4DF20A71C3F62341B9
:103C000001F098FF5946AB4601F06AFD306001278C
:103C100084F00042304631462346009700F026FBF0
:103C2000DAE90356DAE90140314601F083FF07463D
:103C30002046494601F07EFF394601F051FDDAF891
:103C400014100446284601F075FF214601F048FD96
:103C5000DAF8181001F044FD44F20001CAF8180027
:103C6000CAF80000C4F29C514046CAE9049601F02B
:103C7000B5FD88B94846002101F0B0FD039CD8B9D4
:103C800040F2B000C2F200000127014622465B4626
:103C9000009700F0EBFA1FE00498404201F0CAFEE2
:103CA000024640F2B000C2F20000012701465B4626
:103CB000009700F0DBFA0FE00498404201F0BAFEF2
:103CC000024640F2B000C2F20000012784F0004337
:103CD0000146009700F0CAFADAF8000001F08EFE03
:103CE0000246009040F2E400C2F200004FF400717E
:103CF0001346019200F0B0FB05B0BDE8F08F000064
:103D000040F2B0020021C2F20002C4F220114FF0D2
:103D10007E5340F2000C101DC4F2400CC2E90713A0
:103D20000121C2F824C000F077BB000070470000FA
:103D300070B582B032A10446FCF75EFA40B140F2A1
:103D4000C020C2F200000121017002B070BD00BFAE
:103D50002DA12046FCF750FA40B140F2C020C2F23B
:103D600000000021017002B070BD00BF28A12046F4
:103D7000FCF742FAB0B3201D01A901F0ADF8002113
:103D8000C4F2C82101F044FD4FF07E51044601F019
:103D900017FD002818BF4FF07E542046002101F087
:103DA0000FFD0546002840F27800C2F20000D0E97D
:103DB000046018BF2546801B01F03CFE01462846E2
:103DC00001F0B8FE01F01AFE40F274013044C2F274
:103DD0000001086040F2C020C2F200000221017020
:103DE00002B070BD0CA12046FCF706FA28B140F2E3
:103DF000C020C2F200000321017002B070BD00BFFC
:103E00004D4F44453100000053544F500000000016
:103E1000504F533A00000000494E49540000000042
:103E200070470000FEF754B87047000040F294104D
:103E3000C2F20000FEF706BE40F2DC10C2F2000043
:103E4000FEF700BE406A0021C185C184FFF736B885
:103E5000406A01684A6990F84130212B2DD112F057
:103E600080022AD00021C184016851E8031F026842
:103E700021F0C00142E80313DBB1016851E8031FE0
:103E8000026821F0C00142E8031393B1016851E8D0
:103E9000031F026821F0C00142E803134BB101681F
:103EA00051E8031F026821F0C00142E80313002B10
:103EB000DAD1202180F841100168496990F8422048
:103EC000222A40F07D8011F0400179D00021C18587
:103ED000016851E8031F026821F4907142E803135E
:103EE000BBB3016851E8031F026821F4907142E8F6
:103EF000031373B3016851E8031F026821F4907142
:103F000042E803132BB3016851E8031F026821F450
:103F1000907142E80313002BDAD11AE0016851E8EE
:103F2000051F026821F0010142E80513DBB10168B9
:103F300051E8051F026821F0010142E8051393B121
:103F4000016851E8051F026821F0010142E80513EC
:103F50004BB1016851E8051F026821F0010142E8F8
:103F60000513002BDAD1016B012924D1016851E836
:103F7000031F026821F0100142E80313DBB101685E
:103F800051E8031F026821F0100142E8031393B1C6
:103F9000016851E8031F026821F0100142E8031391
:103FA0004BB1016851E8031F026821F0100142E89B
:103FB0000313002BDAD1202180F842100021016385
:103FC000416C41F010014164FEF778BF0168406A1E
:103FD0000968890600F19F800021C185016851E8C8
:103FE000031F026821F4807142E80313E3B1016802
:103FF00051E8031F026821F4807142E803139BB16A
:10400000016851E8031F026821F4807142E803133C
:1040100053B1016851E8031F026821F4807142E83E
:104020000313002BDAD100BF016851E8051F0268B5
:1040300021F0010142E80513BBB3016851E8051FF7
:10404000026821F0010142E8051373B3016851E8E9
:10405000051F026821F0010142E805132BB3016836
:1040600051E8051F026821F0010142E80513002B09
:10407000DAD11AE0016851E8051F026821F0400119
:1040800042E80513DBB1016851E8051F026821F021
:10409000400142E8051393B1016851E8051F026829
:1040A00021F0400142E805134BB1016851E8051FBA
:1040B000026821F0400142E80513002BDAD12021EB
:1040C00080F84210016B012925D100BF016851E839
:1040D000031F026821F0100142E80313DBB10168FD
:1040E00051E8031F026821F0100142E8031393B165
:1040F000016851E8031F026821F0100142E8031330
:104100004BB1016851E8031F026821F0100142E839
:104110000313002BDAD100214163016B012918BF81
:10412000FFF770BA818DFEF76DBE0000406A012175
:104130004163016B012918BFFFF766BA818D4908F9
:10414000FEF760BE81B090F84210222921D1836829
:104150000246B3F5805F09D152F8281F52F8183C87
:10416000002B63D003685B680AE000BF52F8281F89
:1041700013B90369002BF5D003685B6803F07F0374
:104180000B70116801311160C18D01390A04C185BC
:1041900002D001B0704700BF0168CA6822F0200257
:1041A000CA60CA6822F48072CA604A6922F00102B9
:1041B0004A61202180F8421000214163026B012AEC
:1041C0003CD10163016851E8031F026821F010012E
:1041D00042E80313DBB1016851E8031F026821F0D4
:1041E000100142E8031393B1016851E8031F02680C
:1041F00021F0100142E803134BB1016851E8031F9D
:10420000026821F0100142E80313002BDAD10168A3
:104210000A68D20606D5002200920A680092496810
:1042200000910099818D01B0FEF7ECBD02685268E3
:104230006FF35F2221F8022B8162A5E701B0FFF73F
:10424000E1B9000040F22420C2F20000FEF738BEBF
:1042500040F2E400C2F20000FDF782B840F2E40050
:10426000C2F20000FDF77CB8FEE700002DE9F04F38
:1042700083B092460C9ABAB18046501E1E460D4637
:10428000032802F00300019012D20024019F5FB1C5
:1042900058F824903146484601F092FA002871D02F
:1042A00045F82460012F7CD103B0BDE8F08F00BF3A
:1042B00022F003004FF000090024029009E000BF43
:1042C00005EB0900C66002980434A04209F1100908
:1042D000DCD058F809703146384601F07FFA18B939
:1042E00045F809600BE000BF3846514601F06FFA0F
:1042F000002805EB090014BF0760C0F800A008EB18
:10430000090BDBF804703146384601F059FA18B150
:1043100005EB090046600AE03846514601F065FAAF
:10432000002805EB090014BFC0F804A04760DBF8C3
:1043300008703146384601F043FA18B105EB090020
:1043400086600AE03846514601F04FFA002805EB36
:10435000090014BFC0F808A08760DBF80C70314674
:10436000384601F02DFA0028AAD13846514601F00E
:104370003CFA002805EB090014BFC0F80CA0C76088
:10438000A1E700BF4846514601F02FFA002805EB8F
:10439000840014BFC0F800A0C0F80090012F3FF4C3
:1043A00083AF671C58F827903146484601F008FA59
:1043B00030B145F82760019802283FF475AF0FE04F
:1043C0004846514601F011FA002805EB870014BF5A
:1043D000C0F800A0C0F80090019802283FF464AF34
:1043E000023458F824703146384601F0E9F928B112
:1043F00045F8246003B0BDE8F08F00BF3846514651
:1044000001F0F3F9002805EB84000CBF0760C0F849
:1044100000A003B0BDE8F08FF0B581B00D46D0E943
:1044200006610446076A304601F05AF9394601F040
:1044300057F9206038464FF0404101F07BFB314690
:1044400001F044FC6060002DA7601EBF0020C4E99D
:104450000300606101B0F0BD80B58AB00491002115
:10446000CDE906110821DDE90CEC0891110A8DF85F
:104470000410190A8DF806104FEA1E218DF8081055
:104480004FEA1C218DF805208DF807308DF80A10B1
:1044900004A901AA03AB8DF809E08DF80BC0FCF765
:1044A000E7FD0AB080BD000090B0FDF71FFD0024BD
:1044B0000120CDE90B44CDE9094406900A904FF460
:1044C00080104FF4803102250F9006A8CDE9071423
:1044D000CDE90D51FDF7C4FE20B1EFF3108072B6A7
:1044E000FEE700BF0F20CDE901054FF48060CDE964
:1044F000040401A802210394FDF7A2FD20B1EFF30B
:10450000108072B6FEE700BFFFF7ACF9FFF788F93D
:10451000FFF768F9FFF76CFAFFF7F2F9FFF72CFAEB
:1045200040F2E400C2F20000FCF756FDFFF7E8FBA2
:1045300040F29410C2F20000FEF77CF940F2DC1069
:10454000C2F20000FEF776F9FFF7E6F840F27004D9
:10455000C2F2000440F2242004F12001C2F2000063
:104560002022FEF769FB002560780028FCD0FFF7C9
:104570005FFA6570F8E7000023F07F4720F07F4C7A
:1045800080EA030000F00040ACEB070303F57C5326
:1045900003F1FF032DE9804909B44FEA144324EAEB
:1045A00003484FEA154B25EA0B4E0FF2042606EBA3
:1045B00013273E7803FB0667C7F5000707FB06F6DF
:1045C0004FEAD64606F102064FEA543707FB066C5F
:1045D000CCF1005C4FEA1C472CEA074C0CFB06F5BB
:1045E00007FB06F404EB15464FEA961649085FEA06
:1045F000320234BF00204FF000404FEAD13706FBB3
:1046000007FC4FEA1C4C0CFB0BF7D21B03FB0CF70F
:1046100061EB07010CFB0EF7B0EB074072EB1742A2
:104620000CFB08F734BFA2EB0742B2EB074261EB89
:1046300017414FEA0C444FEA910706FB07FC4FEA8B
:104640001C4C0CFB0BF7B0EBC74072EB573203FB73
:104650000CF734BFA2EBC742B2EBC74261EB573154
:104660000CFB0EF7B0EBC70072EB57720CFB08F7B0
:1046700034BFA2EBC702B2EBC70261EB57714FEA3E
:10468000816141EA92114FEA826242EA90124FEA56
:10469000806004EBCC04039F4FEAD13706FB07FC94
:1046A0004FEA1C4C0CFB0BF7D21B03FB0CF761EB26
:1046B00007010CFB0EF7B0EB074072EB17420CFB47
:1046C00008F734BFA2EB0742B2EB074261EB174198
:1046D0004FEA8C5504EB9C244FEA910706FB07FC3C
:1046E0004FEA1C4C0CFB0BF7B0EBC74072EB573298
:1046F00003FB0CF734BFA2EBC742B2EBC74261EB3E
:1047000057310CFB0EF7B0EBC70072EB57720CFB86
:1047100008F734BFA2EBC702B2EBC70261EB5771D7
:104720004FEA816141EA92114FEA826242EA9012B5
:104730004FEA806015EB4C2544F100044FEAD13775
:1047400006FB07FC4FEA1C4C0CFB0BF7D21B03FBD0
:104750000CF761EB07010CFB0EF7B0EB074072EBB7
:1047600017420CFB08F734BFA2EB0742B2EB07423B
:1047700061EB17414FEA813141EA92414FEA8232BF
:1047800042EA90424FEA80304FEA0C7615EB1C1556
:1047900044F1000448EA03434EEA0B484FF0000E90
:1047A000B2EB080C71EB030724BF624639464EEBAF
:1047B0000E0E4FF0000B0018524149414BEB0B0B12
:1047C000B2EB080C71EB03077BF1000B24BF6246D0
:1047D00039464EEB0E0E4FF0000B00185241494186
:1047E0004BEB0B0BB2EB080C71EB03077BF1000BEF
:1047F00024BF624639464EEB0E0E51EA020718BF3F
:1048000046F0010616EB0E7655F1000254F1000158
:1048100003D5BDE88901BDE80088BDE88901BDE890
:104820000048B619524141EB0101A3F10103704761
:1048300080807F7E7D7C7B7A7978777676757473DD
:10484000727171706F6E6E6D6C6C6B6A6A6968689C
:10485000676666656464636362616160605F5F5E32
:104860005E5D5D5C5C5B5B5A5A59595858575756A8
:10487000565555555454535352525251515050500D
:104880004F4F4F4E4E4D4D4D4C4C4C4B4B4B4A4A5F
:104890004A494949484848474747474646464545A3
:1048A00045444444444343434342424242414141DC
:1048B00010B546EA06464FEA164646EA42564FEA21
:1048C000D22242EA41524FEAD121A3F57053A3F11B
:1048D000010300F02FF820F0004000F0004700F145
:1048E000020CBCF5006F01EB0050114640EA0700D6
:1048F00000D210BDBAF1000F0AD01CB503B44FF0BE
:1049000004004FF004014FF000000FBCBDE8104060
:104910004FF00001BBF1010FB9BF04484FF0FF3168
:104920000348002140EA070010BD00BFFFFFEF7FF2
:104930000000F07F9C46002B30D477002BD04FEA4C
:1049400037071CB503B44FF010004FF01001BAF157
:10495000000F06D0BCF1000FDCBF40F0080040F0B3
:1049600008014FF000000FBCBDE810400BF1010B37
:10497000BBF1010F08BF5FEA170722BF12F1010266
:1049800011F101014FF0004143F1000300F000403C
:1049900043EA00007047F9D35708D0E746EA0646D5
:1049A0004FEA164613F1400F1FDD13F1200FDFBF52
:1049B00016430A46002120335B42BED0C3F12007D4
:1049C00046EA06464FEA164602FA07F746EA07069F
:1049D00022FA03F2C3F1200701FA07F742EA0702BD
:1049E00021FA03F14FF00003A7E746EA020646EA80
:1049F00006464FEA164646EA0106BCBF46EA0646A8
:104A0000360C4FF000034FF000024FF0000194E726
:104A10002DE9804C70B49A46934691E8380007C857
:104A200031EA400C48BF34EA430C03D5FFF7A4FD3C
:104A3000FFF780FFF0BCBDE8008C2DE9804C70B41E
:104A40009A46934691E8380007C831EA400C48BFBF
:104A500034EA430C03D5FFF78FFDFFF729FFF0BCC5
:104A6000BDE8008C2DE9804C70B49A46934691E8DD
:104A7000380007C810F0804F08BF13F0804F03D1F3
:104A800000F01AF8FFF756FFF0BCBDE8008C2DE9E6
:104A9000804C70B49A46934691E8380007C810F0ED
:104AA000804F08BF13F0804F03D100F005F8FFF7E7
:104AB000FFFEF0BCBDE8008C20F07F4723F07F4C68
:104AC00080EA030000F0004007EB0C03A3F57C53E1
:104AD000A3F1FE0392F0000F00F0B38095F0000FF9
:104AE00000F077802DE901494FEA114021EA0048A2
:104AF0004FEA144624EA064700FB06FC08FB06F6CC
:104B000007FB08F818EB06484CEB164C00FB07F7C0
:104B100018EB07484CEB17404FEA124B22EA0B4EBA
:104B20004FEA154625EA06470BFB06FC0EFB06F688
:104B300007FB0EFE1EEB064E4CEB164C0BFB07F76D
:104B40001EEB074E4CEB174B18EB0B0840F1000027
:104B500018EB0E0B58EB000840F100008F1A4FF0D5
:104B600000014FF000063CBFC943661B14BFB5EB04
:104B7000040C00213CBFC943F61B4FEA174427EA47
:104B800004454FEA1C472CEA074C04FB076205FB6F
:104B900007F70CFB05F616EB074642EB174204FB42
:104BA0000CFC16EB0C4642EB1C421BEB060658EBCA
:104BB000020241414EEA8E0E46EA9E0601D5BDE84C
:104BC0000189B619524141EB0101A3F10103BDE88E
:104BD00001894FEA144524EA05464FEA114721EAC4
:104BE000074C05FB07F406FB07F70CFB06F111EB7E
:104BF000074144EB174405FB0CFC11EB0C4144EB63
:104C00001C444FEA124722EA074C05FB07F206FB59
:104C100007F70CFB06F616EB074642EB174205FBBF
:104C20000CFC16EB0C4642EB1C456A1854F10001D3
:104C300048BF7047B619524141EB0101A3F101038E
:104C4000704795F0000F37D04FEA114221EA024633
:104C50004FEA144724EA074C02FB07F106FB07F76B
:104C60000CFB06F414EB074441EB174102FB0CFC70
:104C700014EB0C4441EB1C414FEA154725EA074C65
:104C800002FB07F506FB07F70CFB06F616EB0746DB
:104C900045EB174502FB0CFC16EB0C4645EB1C42A2
:104CA000121951F1000148BF7047B619524141EB4A
:104CB0000101A3F1010370474FEA144524EA0546B8
:104CC0004FEA114721EA074C05FB07F106FB07F7FE
:104CD0000CFB06F212EB074241EB174105FB0CFC03
:104CE00012EB0C4251EB1C414FF0000648BF7047DD
:104CF000921841EB0101A3F10103704740F2013228
:104D000000204FF0E04101F08BB80000024A002083
:104D1000110701F085B8000001FDFFFF10B5044642
:104D2000D1E9000100F002F8206010BDF8B504469A
:104D30000D466A4600F06AF800987E300090002820
:104D40001EDC002213462046294600F0E9F917D060
:104D5000002140F608004FF0000006462046294694
:104D600000F0F0F8044640F6080006EA00014FF0B3
:104D7000000034F0004004BF0220FBF7CEFA29E027
:104D80000098FF2828DB002108464FF0000000F4BF
:104D90004006002213462046294600F07DFB8CBFCA
:104DA000002501250220FBF7B8FA4FF0FF4446B179
:104DB000002D0CBF4FF400004FF48000B04218BF2C
:104DC000084C042108464FF00000002D04BF84F079
:104DD0000040F8BD2046F8BD20462946BDE8F84011
:104DE00000F0B0B8FFFF7F7F10B504460A46D4E953
:104DF0000003194600F036F8C4E9000110BD303850
:104E00000A2801D2012070470020704710B51446CF
:104E100000222260114A21F000439342A8BF10BD36
:104E200053EA000208BF10BDB3F5801FA8BF226877
:104E300007DA362200F0F4FF6FF0350221F000436C
:104E40002260DFF81CC06FF31E510CEB23531A4491
:104E500041F0FF5141F00051226010BD0000F07F91
:104E600002FCFFFF2DE9F04106460C4640F2FF75BB
:104E7000174635EA14502BD000221346304600F076
:104E80004FF925D03A463046214600F0C9FF064684
:104E90000C4635EA145010D000221346304600F07C
:104EA0003FF915D10220FBF738FAFFF72FFF0A462A
:104EB000214662F31E01BDE8F0810220FBF72DFAC6
:104EC000FFF71CFF0A46214662F31E01BDE8F08190
:104ED00030462146BDE8F08108B50A460021009120
:104EE00001466846FBF71FFA009808BD10B5002977
:104EF0000AD00878002807D005487844FBF754FD0D
:104F0000002801D0002010BD0248784410BD0000E8
:104F1000AE100000A610000010B500290AD00878D5
:104F2000002807D005487844FBF73EFD002801D053
:104F3000002010BD0248784410BD00009E10000003
:104F40009610000021F0004201F00043A2F16052EF
:104F5000B2F5801F28BFD2F17F6C0BD95FEA001C2D
:104F600043EAC20242EB507018BF704728BF20F0DE
:104F700001007047B2F5801FBCBF184670474FEA6A
:104F8000410C1CF5001F02D2084600F09ABE70B515
:104F900000F02EFA00000089FFF7F6BF4FF0004046
:104FA000A0F580007047000010B591EA030F48BFDC
:104FB00083F0004300F1AE82841A71EB030C05D23A
:104FC000121943EB0C03001B61EB0C014FEA115467
:104FD000A4EB135CDFF81CE11EEA430F18BF9EEA46
:104FE000445F00F0748021EA045123EA0E0343F485
:104FF0008013DCF1200E32D322FA0CFE10EB0E00EF
:1050000023FA0CFE41EB0E01CCF1200E03FA0EFE4A
:1050100010EB0E00CCF1200E51F10001B1F5801F14
:1050200032D201EB045112FA0EF2BDE8104058BF23
:105030007047401C38BF5FEA420218BF7047002823
:1050400014BF20F0010041F100014FEA410313F5C4
:10505000001F38BF7047A1F1C04100F017BA012A04
:1050600043EB0302ACF1200CDCF11F0E32BF4FF01A
:10507000000E23FA0CF310EB030041EB0451B4EBE8
:10508000115FD0D0A1EB045101F58011490801EB6B
:1050900004515FEA30000ED350F1000038BF12FA1D
:1050A0000EFE08D1BDE81040C9E7401C38BF5FEADA
:1050B0004202CAD1C3E7BDE810404FEA410313F5ED
:1050C000001F38BF7047A1F1C04100F0DFB99EEA70
:1050D000445F08D011EA5E0FBDE8104004BF01F044
:1050E000004100207047BDE8104070B500F080F925
:1050F00064FBBE3E0000E0FF02494FF0000000F0FC
:105100005DBE00BF0000F87F491058BFC1F14041AB
:105110005B1058BFC3F140438B42EFF300807047F0
:1051200051EA030C17D41CF5801F58BFBCF5801F33
:1051300000F10680994218BF704708BF904270473F
:1051400007D711F5801F58BF13F5801F19D4994256
:105150007047894270471CF5801F08D5BCF5801F39
:10516000F7D58B4218BF704708BF824270474FF493
:10517000001C1CEB410F38BF1CEB430F01D28B42CC
:10518000704770B500F034F9922449004FF0005197
:105190004FF08053FFF7B8BF4FEA41034FEA535334
:1051A000A3F58063D3F11E03C8BFD3F1210C0CDD3E
:1051B0004FF0004242EAC12242EA505232FA03FC66
:1051C0008CEAE17CACEBE1707047102BC4BF00208F
:1051D000704703F5787CBCF1FF3F04D06FF00042CC
:1051E00082EA2100704770B500F002F949922480EC
:1051F00000207047F2E710F0004248BF4042B0FA8A
:1052000080F310FA03F10AD0C3F11D0303F58063A4
:1052100002EB03524FEA415002EBD12170474FF0AD
:105220000000704751EA030C17D41CF5801F58BFCB
:10523000BCF5801F00F10680994218BF704708BF77
:105240009042704707D711F5801F58BF13F5801F94
:1052500019D499427047894270471CF5801F08D5C0
:10526000BCF5801FF7D58B4218BF704708BF82423C
:1052700070474FF4001C1CEB410F38BF1CEB430F71
:1052800001D28B42704770B500F0B2F89224490009
:105290004FF000514FF08053FFF736BF70B5DFF885
:1052A00048C11CEA111E1EBF1CEA13159EEA0C0F12
:1052B00095EA0C0F00F06F8081EA03044EEAD47E79
:1052C000AE4421EA4C1123EA4C1341F4801143F41B
:1052D0008013AEF17F7EA1FB024CA0FB0365361963
:1052E00055EB0C05A1FB034C4CF10003A0FB021C89
:1052F00016EB0C06654153F10003094218BF46F056
:10530000010613F4007F0BD14FEA03314FEA053059
:1053100041EA155140EA165034036FF003020AE0E7
:105320004FEAC3214FEAC52041EA555140EA5650A1
:10533000F4026FF0020202EB2E4201EB025585EA05
:10534000CE710AD05FEA440C18BF24F0004450F13B
:10535000000041F1000120EAD47040F2FE7C624579
:1053600000D270BDA84214BF4FF080444FF04044BB
:10537000002E08BF0024BEF1806FA8BFA1F1C0417C
:10538000BDE8704080F2828001F1C04101F000412F
:105390004FF0000070470CEA13159EEA0C0F18BF7F
:1053A00095EA0C0F06D081EA030E4FF000000EF0D4
:1053B000004170BD00F01CF88900013E00F007B804
:1053C00000F009B84FEA430C5FEA5C5C08D081EA60
:1053D000030100F05BB84FEA410C5FEA5C5CF6D178
:1053E00002494FF0000070470000FF070000F87FFF
:1053F0000EF1020E2EF0030E5EF8046B364205D459
:10540000012A43EB030515F5001F12D8012841EBD3
:10541000010C1CF5001F0CD80ED14FEAD17C0CEB0F
:105420004C0C0CF1020C15F5001F08BF4CEBD37CA3
:1054300004E04FF0080C01E04FEAD37C0CEB4C0584
:1054400026FA05F606F00706B6F1040C06D20EEBB6
:10545000860CBDE870404CF0010C6047DFE80CF0B2
:10546000090B02024FF00041A1F500214FF00000AE
:1054700070BD19461046012851EB010418BFD4F540
:10548000001484BF002001F0004170BD0808A0F5A1
:1054900000114FEA3101704753EA010C17D41CF593
:1054A000801F58BFBCF5801F00F106808B4218BFDB
:1054B000704708BF8242704707D713F5801F58BF57
:1054C00011F5801F19D48B4270479B4270471CF521
:1054D000801F08D5BCF5801FF7D5994218BF7047CB
:1054E00008BF904270474FF4001C1CEB430F38BFBD
:1054F0001CEB410F01D2994270470FB40CBC03BCA6
:10550000FFF7C1BE10B591EA030F48BF83F0004317
:105510003FF552AD841A71EB030C07D28CF0004CAE
:10552000121943EB0C03001B61EB0C014FEA115401
:10553000A4EB135CDFF8A4E11EEA430F18BF9EEA58
:10554000445F00F0B48021EA045123EA6E03524222
:10555000C3EB6E0338BF5B1EDCF1200E25D322FAAD
:105560000CFE10EB0E0043FA0CFE41EB0E01CCF1E9
:10557000200E03FA0EFE10EB0E00CCF1200E51F1BE
:10558000000129D401EB045112FA0EF2BDE81040DB
:1055900058BF7047401C1CBFB2F1004F7047002835
:1055A0000CBF491C20F00100704712EB020E43EBC8
:1055B000030218BF4FF0010E4EEA4202ACF1200C7C
:1055C000DCF11E0E56D943FA0CFE10EB0E00CCF1A6
:1055D0001E0E51F1FF31D5D50EF1010E12FA0EFE5D
:1055E000404141EB010101EB445C5FEA5C5C10D996
:1055F00001EB045110EBDE7038BFBEF1004FBDE887
:10560000104018BF704700280CBF491C20F0010053
:10561000704734D24FEAD42C24F4006411F5001101
:105620001BD0B1FA81F20B3AA41AA41ED2F12003C6
:10563000914030FA03F31943904001EBCC7101EB38
:105640000451002CBDE81040A8BF704701F1C041D3
:1056500001F000414FF000007047B0FA80F310FAFB
:1056600003F102D1BDE810407047E41A173C480529
:10567000C90AE2E701EB0451BDE810407047491048
:105680004FEA300001EB0451BDE8104002E04FF05A
:10569000000170474A0008BF0042F8D0B2F5001F71
:1056A00028BF704701F000414FF0000070479EEAAC
:1056B000445F07D011EA5E0FBDE8104004BF00212F
:1056C00000207047BDE8104070B5FFF791FE00BFA5
:1056D00040DFF63E104683F0004170470000E0FFD7
:1056E00090EA010F48BF81F0004100F1F682421AB2
:1056F0003CBF801A89184FEAD052A2EBD1534FF029
:105700007F4C1CEA410F18BF9CEA026F00F03B80FF
:105710004FF0004C4CEA00204CEA012121FA03FC36
:1057200010EB0C0C1ED202F1FF325FEA1C2040EBA2
:10573000C25038BF70471CF07F0F4FEA400C18BFB3
:10574000BCF17F4F38BF7047C3F12003994008BFB9
:1057500020F00100BCF17F4F38BF7047A0F1C0407E
:1057600000F0AFBA4FEA3C00000A40EBC25028BF3D
:105770001CF0FF0F4FEA400CE6D018BFBCF17F4F82
:1057800038BF7047EAE79CEA026F05D010EA5C0F69
:1057900008BF00F00040704710B500F04CFA00BFA1
:1057A00064FBBE3E10B500F0F5F80CBF01200020F0
:1057B00010BD10B500F0EEF814BF0120002010BDA0
:1057C00010B500F04FF98CBF0120002010BD10B5BE
:1057D00000F048F92CBF0120002010BD10B500F0EA
:1057E00075F994BF0120002010BD10B500F06EF9CE
:1057F00034BF0120002010BD401058BFC0F1404010
:10580000491058BFC1F140418142EFF30080704719
:105810004FF47F0C1CEAD0121EBF1CEAD11392EA8F
:105820000C0F93EA0C0F00F0858090EA010F48BF3F
:1058300042F4807240F4000C41F400002CF07F41EF
:1058400020F07F4000B5A2EB030281420FF2081C5A
:10585000ACEB504E9EF800E0C0F100004FEA4E0E57
:1058600000FB0EFC38BF49004FEA2C1C0CFB0EF36A
:105870004FEACE1E0EEB635E4FEA112C0EFB0CFCC2
:105880004FEAC1214FEA1C5300FB031102F5FA0253
:105890004FEA112C0EFB0CFC4FEA01314FEADC4CB5
:1058A00000FB0C1142EB2242C14228BF09184CEB0D
:1058B00003335DF804EB10EB410143EBC250B2F54A
:1058C0007C0F38BF704729D512F0F00F1CBF00F1D4
:1058D000C04000F000407047008182838485868745
:1058E00088898B8C8D8E8F919293959697999A9C9F
:1058F0009D9FA0A2A3A5A7A8AAACAEB0B2B3B5B70E
:10590000B9BCBEC0C2C5C7C9CCCED1D4D7D9DCDFE3
:10591000E2E6E9ECF0F3F7FAFE0000004FEA400C93
:105920000CF1807CBCF17E4F28BF7047B0F1C040C5
:1059300000F0C7B90CEAD11390EA010F48BF42F456
:105940008072624538BF634507D213F47F0F16D0CB
:1059500080EA010000F00040704710B500F06BF9DC
:10596000097EFC3E00F005B880EA010000F000402E
:10597000704780EA010000F0004000F0A2B912F484
:105980007F0F04BF0248704780EA010000F099B918
:105990000000C07F50EA010C00F113801CF5000FDD
:1059A00058BFBCF5000F01D48842704707D710F5E7
:1059B000000F58BF11F5000F15D488427047894277
:1059C00070471CF5000F04D5BCF5000FF7D58142D8
:1059D00070474FF0807C1CEB400F38BF1CEB410F31
:1059E00001D28142704710B500F025F99224490098
:1059F0004FF000504FF08051FFF7FEBE41000B0EFC
:105A0000D3F19E0208D950F400034FEA032323FA8E
:105A100002F048BF4042704710B500F00CF900BFDB
:105A200049922480002070476FF0004282EA2000F3
:105A30007047000010F0004148BF4042B0FA80F3C8
:105A400010FA03F2C3F19D030BD051EAC35101EBED
:105A50001220530638BF704700F1010008BF20F044
:105A60000100704750EA010C00F113801CF5000F93
:105A700058BFBCF5000F01D48842704707D710F516
:105A8000000F58BF11F5000F15D4884270478942A6
:105A900070471CF5000F04D5BCF5000FF7D5814207
:105AA00070474FF0807C1CEB400F38BF1CEB410F60
:105AB00001D28142704710B500F0BDF89224490030
:105AC0004FF080504FF00051FFF796BE50EA010CA6
:105AD00000F113801CF5000F58BFBCF5000F01D476
